{"abi":[{"type":"function","name":"createTask","inputs":[{"name":"task","type":"string","internalType":"string"},{"name":"_sharedWith","type":"address[]","internalType":"address[]"}],"outputs":[],"stateMutability":"nonpayable"},{"type":"function","name":"getMyTasks","inputs":[],"outputs":[{"name":"myToDoInfos","type":"tuple[]","internalType":"struct ToDo.TodoInfo[]","components":[{"name":"id","type":"uint256","internalType":"uint256"},{"name":"taskName","type":"string","internalType":"string"},{"name":"completed","type":"bool","internalType":"bool"},{"name":"createdAt","type":"uint256","internalType":"uint256"},{"name":"updatedAt","type":"uint256","internalType":"uint256"}]}],"stateMutability":"view"},{"type":"function","name":"getSharedTasks","inputs":[{"name":"_creator","type":"address","internalType":"address"}],"outputs":[{"name":"mySharedTasks","type":"tuple[]","internalType":"struct ToDo.TodoInfo[]","components":[{"name":"id","type":"uint256","internalType":"uint256"},{"name":"taskName","type":"string","internalType":"string"},{"name":"completed","type":"bool","internalType":"bool"},{"name":"createdAt","type":"uint256","internalType":"uint256"},{"name":"updatedAt","type":"uint256","internalType":"uint256"}]}],"stateMutability":"view"},{"type":"function","name":"markAsCompleted","inputs":[{"name":"_creator","type":"address","internalType":"address"},{"name":"_taskIndex","type":"uint256","internalType":"uint256"}],"outputs":[],"stateMutability":"nonpayable"},{"type":"event","name":"CreateTask","inputs":[{"name":"index","type":"uint256","indexed":true,"internalType":"uint256"},{"name":"creator","type":"address","indexed":true,"internalType":"address"},{"name":"taskName","type":"string","indexed":false,"internalType":"string"},{"name":"completed","type":"bool","indexed":false,"internalType":"bool"},{"name":"createdAt","type":"uint256","indexed":false,"internalType":"uint256"},{"name":"updatedAt","type":"uint256","indexed":false,"internalType":"uint256"}],"anonymous":false},{"type":"event","name":"TaskCompleted","inputs":[{"name":"taskId","type":"uint256","indexed":false,"internalType":"uint256"},{"name":"status","type":"bool","indexed":false,"internalType":"bool"},{"name":"updatedAt","type":"uint256","indexed":false,"internalType":"uint256"}],"anonymous":false},{"type":"event","name":"TaskShared","inputs":[{"name":"creator","type":"address","indexed":true,"internalType":"address"},{"name":"taskIndex","type":"uint256","indexed":false,"internalType":"uint256"},{"name":"sharedWith","type":"address","indexed":false,"internalType":"address"}],"anonymous":false},{"type":"error","name":"TaskAlreadyCompleted","inputs":[]},{"type":"error","name":"UnAuthorized","inputs":[]}],"bytecode":{"object":"0x608060405234801561001057600080fd5b50610e98806100206000396000f3fe608060405234801561001057600080fd5b506004361061004c5760003560e01c806350a862b1146100515780636e13f81814610066578063c222c7b114610084578063d20c2fce14610097575b600080fd5b61006461005f366004610a20565b6100aa565b005b61006e610216565b60405161007b9190610a4a565b60405180910390f35b610064610092366004610b3a565b6103db565b61006e6100a5366004610c58565b6105dc565b6001600160a01b038216158015906100d957506001600160a01b03821660009081526020819052604090205481105b6101185760405162461bcd60e51b815260206004820152600c60248201526b496e76616c6964207461736b60a01b604482015260640160405180910390fd5b336001600160a01b038316141580610137575061013582826108eb565b155b156101555760405163be24598360e01b815260040160405180910390fd5b6001600160a01b038216600090815260208190526040812080548390811061017f5761017f610c7a565b60009182526020909120600590910201600281015490915060ff16156101b857604051637fba946d60e01b815260040160405180910390fd5b60028101805460ff1916600190811790915542600483018190556040805185815260208101939093528201527fc61d108e7c8dc01dab151d35a1fb121b0da08ae26714b7ee185a1a2d665d2edb9060600160405180910390a1505050565b336000908152602081905260409020546060908067ffffffffffffffff81111561024257610242610b24565b6040519080825280602002602001820160405280156102a757816020015b6102946040518060a00160405280600081526020016060815260200160001515815260200160008152602001600081525090565b8152602001906001900390816102605790505b50915060005b818110156103d6573360009081526020819052604090208054829081106102d6576102d6610c7a565b90600052602060002090600502016040518060a00160405290816000820154815260200160018201805461030990610c90565b80601f016020809104026020016040519081016040528092919081815260200182805461033590610c90565b80156103825780601f1061035757610100808354040283529160200191610382565b820191906000526020600020905b81548152906001019060200180831161036557829003601f168201915b5050509183525050600282015460ff16151560208201526003820154604082015260049091015460609091015283518490839081106103c3576103c3610c7a565b60209081029190910101526001016102ad565b505090565b6040805160a08101825233600090815260208181528382205483528351601f870182900482028101820190945285845290928183019187908790819084018382808284376000920182905250938552505050602080830182905242604080850182905260609094015233825281815291812080546001818101835591835291839020845160059093020191825591830151929350839290918201906104809082610d1b565b5060408281015160028301805460ff191691151591909117905560608301516003830155608090920151600490910155336000818152602081905291909120546104cc90600190610df1565b7f71242abc0adccdeec82e33b8df611c240cf29e91ae2fa2adc09dac0caed991b6868685604001514242604051610507959493929190610e04565b60405180910390a38151156105d65760005b82518110156105d457336000908152600160209081526040808320855184528252909120845161054b9286019061098a565b50336000818152602081905260409020547f5d6d8510de0cf1320cbaf067f755fa8b9f0910abd0e312bab5af72f2369c52c29061058a90600190610df1565b85848151811061059c5761059c610c7a565b60200260200101516040516105c49291909182526001600160a01b0316602082015260400190565b60405180910390a2600101610519565b505b50505050565b6001600160a01b03811660009081526020819052604081205460609190815b818110156106a25760005b6001600160a01b0386166000908152600160209081526040808320858452909152902054811015610699576001600160a01b0386166000908152600160209081526040808320858452909152902080543391908390811061066957610669610c7a565b6000918252602090912001546001600160a01b031603610691578361068d81610e49565b9450505b600101610606565b506001016105fb565b508167ffffffffffffffff8111156106bc576106bc610b24565b60405190808252806020026020018201604052801561072157816020015b61070e6040518060a00160405280600081526020016060815260200160001515815260200160008152602001600081525090565b8152602001906001900390816106da5790505b50925060005b818110156108e35760005b6001600160a01b03861660009081526001602090815260408083208584529091529020548110156108da576001600160a01b0386166000908152600160209081526040808320858452909152902080543391908390811061079557610795610c7a565b6000918252602090912001546001600160a01b0316036108d2576001600160a01b03861660009081526020819052604090208054839081106107d9576107d9610c7a565b90600052602060002090600502016040518060a00160405290816000820154815260200160018201805461080c90610c90565b80601f016020809104026020016040519081016040528092919081815260200182805461083890610c90565b80156108855780601f1061085a57610100808354040283529160200191610885565b820191906000526020600020905b81548152906001019060200180831161086857829003601f168201915b5050509183525050600282015460ff16151560208201526003820154604082015260049091015460609091015285518690849081106108c6576108c6610c7a565b60200260200101819052505b600101610732565b50600101610727565b505050919050565b6000805b6001600160a01b038416600090815260016020908152604080832086845290915290205481101561097e576001600160a01b0384166000908152600160209081526040808320868452909152902080543391908390811061095257610952610c7a565b6000918252602090912001546001600160a01b031603610976576001915050610984565b6001016108ef565b50600090505b92915050565b8280548282559060005260206000209081019282156109df579160200282015b828111156109df57825182546001600160a01b0319166001600160a01b039091161782556020909201916001909101906109aa565b506109eb9291506109ef565b5090565b5b808211156109eb57600081556001016109f0565b80356001600160a01b0381168114610a1b57600080fd5b919050565b60008060408385031215610a3357600080fd5b610a3c83610a04565b946020939093013593505050565b600060208083018184528085518083526040925060408601915060408160051b8701018488016000805b84811015610b1557603f198a8503018652825160a08151865289820151818b880152805180838901528592505b80831015610abf578183018c015188840160c00152918b0191610aa1565b60c092508583828a0101528a8401519150610add8b89018315159052565b60608481015190890152608093840151938801939093525096890196601f909101601f19169094019093019291870191600101610a74565b50919998505050505050505050565b634e487b7160e01b600052604160045260246000fd5b600080600060408486031215610b4f57600080fd5b833567ffffffffffffffff80821115610b6757600080fd5b818601915086601f830112610b7b57600080fd5b813581811115610b8a57600080fd5b60208881838601011115610b9d57600080fd5b808401965081955080880135935082841115610bb857600080fd5b838801935088601f850112610bcc57600080fd5b8335915082821115610be057610be0610b24565b8160051b604051601f19603f83011681018181108682111715610c0557610c05610b24565b60405292835281830193508481018201928a841115610c2357600080fd5b948201945b83861015610c4857610c3986610a04565b85529482019493820193610c28565b8096505050505050509250925092565b600060208284031215610c6a57600080fd5b610c7382610a04565b9392505050565b634e487b7160e01b600052603260045260246000fd5b600181811c90821680610ca457607f821691505b602082108103610cc457634e487b7160e01b600052602260045260246000fd5b50919050565b601f821115610d16576000816000526020600020601f850160051c81016020861015610cf35750805b601f850160051c820191505b81811015610d1257828155600101610cff565b5050505b505050565b815167ffffffffffffffff811115610d3557610d35610b24565b610d4981610d438454610c90565b84610cca565b602080601f831160018114610d7e5760008415610d665750858301515b600019600386901b1c1916600185901b178555610d12565b600085815260208120601f198616915b82811015610dad57888601518255948401946001909101908401610d8e565b5085821015610dcb5787850151600019600388901b60f8161c191681555b5050505050600190811b01905550565b634e487b7160e01b600052601160045260246000fd5b8181038181111561098457610984610ddb565b60808152846080820152848660a0830137600060a0868301810191909152931515602082015260408101929092526060820152601f909201601f191690910101919050565b600060018201610e5b57610e5b610ddb565b506001019056fea26469706673582212206043d9158cf50e0be2661af518ce33d3f4b190a4d2f82ecb0d9a39da0dd9a99f64736f6c63430008170033","linkReferences":{}},"methodIdentifiers":{"createTask(string,address[])":"c222c7b1","getMyTasks()":"6e13f818","getSharedTasks(address)":"d20c2fce","markAsCompleted(address,uint256)":"50a862b1"},"id":23}