{"abi":[{"type":"function","name":"checkedSharedTask","inputs":[{"name":"_creator","type":"address","internalType":"address"},{"name":"taskId","type":"uint256","internalType":"uint256"}],"outputs":[{"name":"","type":"bool","internalType":"bool"}],"stateMutability":"view"},{"type":"function","name":"createTask","inputs":[{"name":"task","type":"string","internalType":"string"},{"name":"_sharedWith","type":"address[]","internalType":"address[]"}],"outputs":[],"stateMutability":"nonpayable"},{"type":"function","name":"getMyTasks","inputs":[],"outputs":[{"name":"myToDoInfos","type":"tuple[]","internalType":"struct ToDo.TodoInfo[]","components":[{"name":"id","type":"uint256","internalType":"uint256"},{"name":"taskName","type":"string","internalType":"string"},{"name":"completed","type":"bool","internalType":"bool"},{"name":"createdAt","type":"uint256","internalType":"uint256"},{"name":"updatedAt","type":"uint256","internalType":"uint256"}]}],"stateMutability":"view"},{"type":"function","name":"getSharedTasks","inputs":[{"name":"_creator","type":"address","internalType":"address"}],"outputs":[{"name":"mySharedTasks","type":"tuple[]","internalType":"struct ToDo.TodoInfo[]","components":[{"name":"id","type":"uint256","internalType":"uint256"},{"name":"taskName","type":"string","internalType":"string"},{"name":"completed","type":"bool","internalType":"bool"},{"name":"createdAt","type":"uint256","internalType":"uint256"},{"name":"updatedAt","type":"uint256","internalType":"uint256"}]}],"stateMutability":"view"},{"type":"function","name":"markAsCompleted","inputs":[{"name":"_creator","type":"address","internalType":"address"},{"name":"_taskIndex","type":"uint256","internalType":"uint256"}],"outputs":[],"stateMutability":"nonpayable"},{"type":"event","name":"CreateTask","inputs":[{"name":"index","type":"uint256","indexed":true,"internalType":"uint256"},{"name":"creator","type":"address","indexed":true,"internalType":"address"},{"name":"taskName","type":"string","indexed":false,"internalType":"string"},{"name":"completed","type":"bool","indexed":false,"internalType":"bool"},{"name":"createdAt","type":"uint256","indexed":false,"internalType":"uint256"},{"name":"updatedAt","type":"uint256","indexed":false,"internalType":"uint256"}],"anonymous":false},{"type":"event","name":"TaskCompleted","inputs":[{"name":"taskId","type":"uint256","indexed":true,"internalType":"uint256"},{"name":"status","type":"bool","indexed":false,"internalType":"bool"},{"name":"updatedAt","type":"uint256","indexed":false,"internalType":"uint256"}],"anonymous":false},{"type":"event","name":"TaskShared","inputs":[{"name":"creator","type":"address","indexed":true,"internalType":"address"},{"name":"taskIndex","type":"uint256","indexed":false,"internalType":"uint256"},{"name":"sharedWith","type":"address","indexed":false,"internalType":"address"}],"anonymous":false},{"type":"error","name":"TaskAlreadyCompleted","inputs":[]},{"type":"error","name":"UnAuthorized","inputs":[]}],"bytecode":{"object":"0x608060405234801561001057600080fd5b50610ecb806100206000396000f3fe608060405234801561001057600080fd5b50600436106100575760003560e01c8063324db0491461005c57806350a862b1146100845780636e13f81814610099578063c222c7b1146100ae578063d20c2fce146100c1575b600080fd5b61006f61006a366004610a53565b6100d4565b60405190151581526020015b60405180910390f35b610097610092366004610a53565b610173565b005b6100a16102e8565b60405161007b9190610a7d565b6100976100bc366004610b6d565b6104ad565b6100a16100cf366004610c8b565b6106ae565b6000805b6001600160a01b0384166000908152600160209081526040808320868452909152902054811015610167576001600160a01b0384166000908152600160209081526040808320868452909152902080543391908390811061013b5761013b610cad565b6000918252602090912001546001600160a01b03160361015f57600191505061016d565b6001016100d8565b50600090505b92915050565b6001600160a01b038216158015906101a257506001600160a01b03821660009081526020819052604090205481105b6101e15760405162461bcd60e51b815260206004820152600c60248201526b496e76616c6964207461736b60a01b604482015260640160405180910390fd5b336001600160a01b0383161480159061020157506101ff82826100d4565b155b1561021f5760405163be24598360e01b815260040160405180910390fd5b6001600160a01b038216600090815260208190526040812080548390811061024957610249610cad565b60009182526020909120600590910201600281015490915060ff16151560010361028657604051637fba946d60e01b815260040160405180910390fd5b60028101805460ff19166001908117909155426004830181905560405184927fc61d108e7c8dc01dab151d35a1fb121b0da08ae26714b7ee185a1a2d665d2edb926102db929115158252602082015260400190565b60405180910390a2505050565b336000908152602081905260409020546060908067ffffffffffffffff81111561031457610314610b57565b60405190808252806020026020018201604052801561037957816020015b6103666040518060a00160405280600081526020016060815260200160001515815260200160008152602001600081525090565b8152602001906001900390816103325790505b50915060005b818110156104a8573360009081526020819052604090208054829081106103a8576103a8610cad565b90600052602060002090600502016040518060a0016040529081600082015481526020016001820180546103db90610cc3565b80601f016020809104026020016040519081016040528092919081815260200182805461040790610cc3565b80156104545780601f1061042957610100808354040283529160200191610454565b820191906000526020600020905b81548152906001019060200180831161043757829003601f168201915b5050509183525050600282015460ff161515602082015260038201546040820152600490910154606090910152835184908390811061049557610495610cad565b602090810291909101015260010161037f565b505090565b6040805160a08101825233600090815260208181528382205483528351601f870182900482028101820190945285845290928183019187908790819084018382808284376000920182905250938552505050602080830182905242604080850182905260609094015233825281815291812080546001818101835591835291839020845160059093020191825591830151929350839290918201906105529082610d4e565b5060408281015160028301805460ff1916911515919091179055606083015160038301556080909201516004909101553360008181526020819052919091205461059e90600190610e24565b7f71242abc0adccdeec82e33b8df611c240cf29e91ae2fa2adc09dac0caed991b68686856040015142426040516105d9959493929190610e37565b60405180910390a38151156106a85760005b82518110156106a657336000908152600160209081526040808320855184528252909120845161061d928601906109bd565b50336000818152602081905260409020547f5d6d8510de0cf1320cbaf067f755fa8b9f0910abd0e312bab5af72f2369c52c29061065c90600190610e24565b85848151811061066e5761066e610cad565b60200260200101516040516106969291909182526001600160a01b0316602082015260400190565b60405180910390a26001016105eb565b505b50505050565b6001600160a01b03811660009081526020819052604081205460609190815b818110156107745760005b6001600160a01b038616600090815260016020908152604080832085845290915290205481101561076b576001600160a01b0386166000908152600160209081526040808320858452909152902080543391908390811061073b5761073b610cad565b6000918252602090912001546001600160a01b031603610763578361075f81610e7c565b9450505b6001016106d8565b506001016106cd565b508167ffffffffffffffff81111561078e5761078e610b57565b6040519080825280602002602001820160405280156107f357816020015b6107e06040518060a00160405280600081526020016060815260200160001515815260200160008152602001600081525090565b8152602001906001900390816107ac5790505b50925060005b818110156109b55760005b6001600160a01b03861660009081526001602090815260408083208584529091529020548110156109ac576001600160a01b0386166000908152600160209081526040808320858452909152902080543391908390811061086757610867610cad565b6000918252602090912001546001600160a01b0316036109a4576001600160a01b03861660009081526020819052604090208054839081106108ab576108ab610cad565b90600052602060002090600502016040518060a0016040529081600082015481526020016001820180546108de90610cc3565b80601f016020809104026020016040519081016040528092919081815260200182805461090a90610cc3565b80156109575780601f1061092c57610100808354040283529160200191610957565b820191906000526020600020905b81548152906001019060200180831161093a57829003601f168201915b5050509183525050600282015460ff161515602082015260038201546040820152600490910154606090910152855186908490811061099857610998610cad565b60200260200101819052505b600101610804565b506001016107f9565b505050919050565b828054828255906000526020600020908101928215610a12579160200282015b82811115610a1257825182546001600160a01b0319166001600160a01b039091161782556020909201916001909101906109dd565b50610a1e929150610a22565b5090565b5b80821115610a1e5760008155600101610a23565b80356001600160a01b0381168114610a4e57600080fd5b919050565b60008060408385031215610a6657600080fd5b610a6f83610a37565b946020939093013593505050565b600060208083018184528085518083526040925060408601915060408160051b8701018488016000805b84811015610b4857603f198a8503018652825160a08151865289820151818b880152805180838901528592505b80831015610af2578183018c015188840160c00152918b0191610ad4565b60c092508583828a0101528a8401519150610b108b89018315159052565b60608481015190890152608093840151938801939093525096890196601f909101601f19169094019093019291870191600101610aa7565b50919998505050505050505050565b634e487b7160e01b600052604160045260246000fd5b600080600060408486031215610b8257600080fd5b833567ffffffffffffffff80821115610b9a57600080fd5b818601915086601f830112610bae57600080fd5b813581811115610bbd57600080fd5b60208881838601011115610bd057600080fd5b808401965081955080880135935082841115610beb57600080fd5b838801935088601f850112610bff57600080fd5b8335915082821115610c1357610c13610b57565b8160051b604051601f19603f83011681018181108682111715610c3857610c38610b57565b60405292835281830193508481018201928a841115610c5657600080fd5b948201945b83861015610c7b57610c6c86610a37565b85529482019493820193610c5b565b8096505050505050509250925092565b600060208284031215610c9d57600080fd5b610ca682610a37565b9392505050565b634e487b7160e01b600052603260045260246000fd5b600181811c90821680610cd757607f821691505b602082108103610cf757634e487b7160e01b600052602260045260246000fd5b50919050565b601f821115610d49576000816000526020600020601f850160051c81016020861015610d265750805b601f850160051c820191505b81811015610d4557828155600101610d32565b5050505b505050565b815167ffffffffffffffff811115610d6857610d68610b57565b610d7c81610d768454610cc3565b84610cfd565b602080601f831160018114610db15760008415610d995750858301515b600019600386901b1c1916600185901b178555610d45565b600085815260208120601f198616915b82811015610de057888601518255948401946001909101908401610dc1565b5085821015610dfe5787850151600019600388901b60f8161c191681555b5050505050600190811b01905550565b634e487b7160e01b600052601160045260246000fd5b8181038181111561016d5761016d610e0e565b60808152846080820152848660a0830137600060a0868301810191909152931515602082015260408101929092526060820152601f909201601f191690910101919050565b600060018201610e8e57610e8e610e0e565b506001019056fea2646970667358221220674c489b6a3d048564e9974a06d3b253a4572784671157989c50ba3cb913675664736f6c63430008170033","linkReferences":{}},"methodIdentifiers":{"checkedSharedTask(address,uint256)":"324db049","createTask(string,address[])":"c222c7b1","getMyTasks()":"6e13f818","getSharedTasks(address)":"d20c2fce","markAsCompleted(address,uint256)":"50a862b1"},"id":23}